{
  "_format": "hh-sol-artifact-1",
  "contractName": "CarCertificate",
  "sourceName": "contracts/CarCertificate.sol",
  "abi": [
    {
      "inputs": [],
      "stateMutability": "nonpayable",
      "type": "constructor"
    },
    {
      "anonymous": false,
      "inputs": [
        {
          "indexed": true,
          "internalType": "address",
          "name": "owner",
          "type": "address"
        },
        {
          "indexed": true,
          "internalType": "address",
          "name": "approved",
          "type": "address"
        },
        {
          "indexed": true,
          "internalType": "uint256",
          "name": "tokenId",
          "type": "uint256"
        }
      ],
      "name": "Approval",
      "type": "event"
    },
    {
      "anonymous": false,
      "inputs": [
        {
          "indexed": true,
          "internalType": "address",
          "name": "owner",
          "type": "address"
        },
        {
          "indexed": true,
          "internalType": "address",
          "name": "operator",
          "type": "address"
        },
        {
          "indexed": false,
          "internalType": "bool",
          "name": "approved",
          "type": "bool"
        }
      ],
      "name": "ApprovalForAll",
      "type": "event"
    },
    {
      "anonymous": false,
      "inputs": [
        {
          "indexed": true,
          "internalType": "address",
          "name": "from",
          "type": "address"
        },
        {
          "indexed": true,
          "internalType": "address",
          "name": "to",
          "type": "address"
        },
        {
          "indexed": true,
          "internalType": "uint256",
          "name": "tokenId",
          "type": "uint256"
        }
      ],
      "name": "Transfer",
      "type": "event"
    },
    {
      "inputs": [
        {
          "internalType": "address",
          "name": "to",
          "type": "address"
        },
        {
          "internalType": "uint256",
          "name": "tokenId",
          "type": "uint256"
        }
      ],
      "name": "approve",
      "outputs": [],
      "stateMutability": "nonpayable",
      "type": "function"
    },
    {
      "inputs": [
        {
          "internalType": "address",
          "name": "owner",
          "type": "address"
        }
      ],
      "name": "balanceOf",
      "outputs": [
        {
          "internalType": "uint256",
          "name": "",
          "type": "uint256"
        }
      ],
      "stateMutability": "view",
      "type": "function"
    },
    {
      "inputs": [
        {
          "internalType": "address",
          "name": "person",
          "type": "address"
        }
      ],
      "name": "checkDegreeOfPerson",
      "outputs": [
        {
          "internalType": "string",
          "name": "",
          "type": "string"
        }
      ],
      "stateMutability": "view",
      "type": "function"
    },
    {
      "inputs": [
        {
          "internalType": "string",
          "name": "tokenURI",
          "type": "string"
        }
      ],
      "name": "claimDegree",
      "outputs": [
        {
          "internalType": "uint256",
          "name": "",
          "type": "uint256"
        }
      ],
      "stateMutability": "nonpayable",
      "type": "function"
    },
    {
      "inputs": [
        {
          "internalType": "uint256",
          "name": "tokenId",
          "type": "uint256"
        }
      ],
      "name": "getApproved",
      "outputs": [
        {
          "internalType": "address",
          "name": "",
          "type": "address"
        }
      ],
      "stateMutability": "view",
      "type": "function"
    },
    {
      "inputs": [
        {
          "internalType": "address",
          "name": "owner",
          "type": "address"
        },
        {
          "internalType": "address",
          "name": "operator",
          "type": "address"
        }
      ],
      "name": "isApprovedForAll",
      "outputs": [
        {
          "internalType": "bool",
          "name": "",
          "type": "bool"
        }
      ],
      "stateMutability": "view",
      "type": "function"
    },
    {
      "inputs": [
        {
          "internalType": "address",
          "name": "to",
          "type": "address"
        }
      ],
      "name": "issueDegree",
      "outputs": [],
      "stateMutability": "nonpayable",
      "type": "function"
    },
    {
      "inputs": [
        {
          "internalType": "address",
          "name": "",
          "type": "address"
        }
      ],
      "name": "issuedDegrees",
      "outputs": [
        {
          "internalType": "bool",
          "name": "",
          "type": "bool"
        }
      ],
      "stateMutability": "view",
      "type": "function"
    },
    {
      "inputs": [],
      "name": "name",
      "outputs": [
        {
          "internalType": "string",
          "name": "",
          "type": "string"
        }
      ],
      "stateMutability": "view",
      "type": "function"
    },
    {
      "inputs": [
        {
          "internalType": "uint256",
          "name": "tokenId",
          "type": "uint256"
        }
      ],
      "name": "ownerOf",
      "outputs": [
        {
          "internalType": "address",
          "name": "",
          "type": "address"
        }
      ],
      "stateMutability": "view",
      "type": "function"
    },
    {
      "inputs": [
        {
          "internalType": "address",
          "name": "",
          "type": "address"
        }
      ],
      "name": "personToDegree",
      "outputs": [
        {
          "internalType": "string",
          "name": "",
          "type": "string"
        }
      ],
      "stateMutability": "view",
      "type": "function"
    },
    {
      "inputs": [
        {
          "internalType": "address",
          "name": "operator",
          "type": "address"
        },
        {
          "internalType": "bool",
          "name": "approved",
          "type": "bool"
        }
      ],
      "name": "setApprovalForAll",
      "outputs": [],
      "stateMutability": "nonpayable",
      "type": "function"
    },
    {
      "inputs": [
        {
          "internalType": "bytes4",
          "name": "interfaceId",
          "type": "bytes4"
        }
      ],
      "name": "supportsInterface",
      "outputs": [
        {
          "internalType": "bool",
          "name": "",
          "type": "bool"
        }
      ],
      "stateMutability": "view",
      "type": "function"
    },
    {
      "inputs": [],
      "name": "symbol",
      "outputs": [
        {
          "internalType": "string",
          "name": "",
          "type": "string"
        }
      ],
      "stateMutability": "view",
      "type": "function"
    },
    {
      "inputs": [
        {
          "internalType": "uint256",
          "name": "tokenId",
          "type": "uint256"
        }
      ],
      "name": "tokenURI",
      "outputs": [
        {
          "internalType": "string",
          "name": "",
          "type": "string"
        }
      ],
      "stateMutability": "view",
      "type": "function"
    },
    {
      "inputs": [
        {
          "internalType": "address",
          "name": "from",
          "type": "address"
        },
        {
          "internalType": "address",
          "name": "to",
          "type": "address"
        },
        {
          "internalType": "uint256",
          "name": "tokenId",
          "type": "uint256"
        }
      ],
      "name": "transferFrom",
      "outputs": [],
      "stateMutability": "nonpayable",
      "type": "function"
    }
  ],
  "bytecode": "0x60806040523480156200001157600080fd5b506040518060400160405280600e81526020017f43617243657274696669636174650000000000000000000000000000000000008152506040518060400160405280600e81526020017f4361724365727469666963617465000000000000000000000000000000000000815250816000908051906020019062000096929190620000f9565b508060019080519060200190620000af929190620000f9565b50505033600760006101000a81548173ffffffffffffffffffffffffffffffffffffffff021916908373ffffffffffffffffffffffffffffffffffffffff1602179055506200020e565b8280546200010790620001a9565b90600052602060002090601f0160209004810192826200012b576000855562000177565b82601f106200014657805160ff191683800117855562000177565b8280016001018555821562000177579182015b828111156200017657825182559160200191906001019062000159565b5b5090506200018691906200018a565b5090565b5b80821115620001a55760008160009055506001016200018b565b5090565b60006002820490506001821680620001c257607f821691505b60208210811415620001d957620001d8620001df565b5b50919050565b7f4e487b7100000000000000000000000000000000000000000000000000000000600052602260045260246000fd5b612add806200021e6000396000f3fe608060405234801561001057600080fd5b50600436106101005760003560e01c80636352211e11610097578063b5d473da11610066578063b5d473da146102d1578063c87b56dd14610301578063e985e9c514610331578063f5caa7631461036157610100565b80636352211e1461023757806370a082311461026757806395d89b4114610297578063a22cb465146102b557610100565b806323b872dd116100d357806323b872dd1461019f5780632db2f478146101bb57806337f902f0146101eb57806349d89ea41461021b57610100565b806301ffc9a71461010557806306fdde0314610135578063081812fc14610153578063095ea7b314610183575b600080fd5b61011f600480360381019061011a9190611c6a565b610391565b60405161012c9190612003565b60405180910390f35b61013d610473565b60405161014a919061201e565b60405180910390f35b61016d60048036038101906101689190611cd4565b610505565b60405161017a9190611fe8565b60405180910390f35b61019d60048036038101906101989190611c2e565b61058a565b005b6101b960048036038101906101b49190611ba3565b6106a2565b005b6101d560048036038101906101d09190611c93565b610702565b6040516101e29190612240565b60405180910390f35b61020560048036038101906102009190611b3e565b610871565b604051610212919061201e565b60405180910390f35b61023560048036038101906102309190611b3e565b610911565b005b610251600480360381019061024c9190611cd4565b6109c6565b60405161025e9190611fe8565b60405180910390f35b610281600480360381019061027c9190611b3e565b610a78565b60405161028e9190612240565b60405180910390f35b61029f610b30565b6040516102ac919061201e565b60405180910390f35b6102cf60048036038101906102ca9190611bf2565b610bc2565b005b6102eb60048036038101906102e69190611b3e565b610bd8565b6040516102f8919061201e565b60405180910390f35b61031b60048036038101906103169190611cd4565b610ca9565b604051610328919061201e565b60405180910390f35b61034b60048036038101906103469190611b67565b610dfb565b6040516103589190612003565b60405180910390f35b61037b60048036038101906103769190611b3e565b610e8f565b6040516103889190612003565b60405180910390f35b60007f7aa5391d000000000000000000000000000000000000000000000000000000007bffffffffffffffffffffffffffffffffffffffffffffffffffffffff1916827bffffffffffffffffffffffffffffffffffffffffffffffffffffffff1916148061045c57507f5b5e139f000000000000000000000000000000000000000000000000000000007bffffffffffffffffffffffffffffffffffffffffffffffffffffffff1916827bffffffffffffffffffffffffffffffffffffffffffffffffffffffff1916145b8061046c575061046b82610eaf565b5b9050919050565b60606000805461048290612449565b80601f01602080910402602001604051908101604052809291908181526020018280546104ae90612449565b80156104fb5780601f106104d0576101008083540402835291602001916104fb565b820191906000526020600020905b8154815290600101906020018083116104de57829003601f168201915b5050505050905090565b600061051082610f19565b61054f576040517f08c379a0000000000000000000000000000000000000000000000000000000008152600401610546906121a0565b60405180910390fd5b6004600083815260200190815260200160002060009054906101000a900473ffffffffffffffffffffffffffffffffffffffff169050919050565b6000610595826109c6565b90508073ffffffffffffffffffffffffffffffffffffffff168373ffffffffffffffffffffffffffffffffffffffff161415610606576040517f08c379a00000000000000000000000000000000000000000000000000000000081526004016105fd906121e0565b60405180910390fd5b8073ffffffffffffffffffffffffffffffffffffffff16610625610f85565b73ffffffffffffffffffffffffffffffffffffffff16148061065457506106538161064e610f85565b610dfb565b5b610693576040517f08c379a000000000000000000000000000000000000000000000000000000000815260040161068a906120e0565b60405180910390fd5b61069d8383610f8d565b505050565b6106b36106ad610f85565b82611046565b6106f2576040517f08c379a00000000000000000000000000000000000000000000000000000000081526004016106e990612200565b60405180910390fd5b6106fd838383611124565b505050565b6000600a60003373ffffffffffffffffffffffffffffffffffffffff1673ffffffffffffffffffffffffffffffffffffffff16815260200190815260200160002060009054906101000a900460ff16610790576040517f08c379a000000000000000000000000000000000000000000000000000000000815260040161078790612220565b60405180910390fd5b61079a600861138b565b60006107a660086113a1565b90506107b233826113af565b6107bc8184611589565b82600960003373ffffffffffffffffffffffffffffffffffffffff1673ffffffffffffffffffffffffffffffffffffffff168152602001908152602001600020908051906020019061080f9291906119df565b506000600a60003373ffffffffffffffffffffffffffffffffffffffff1673ffffffffffffffffffffffffffffffffffffffff16815260200190815260200160002060006101000a81548160ff02191690831515021790555080915050919050565b6009602052806000526040600020600091509050805461089090612449565b80601f01602080910402602001604051908101604052809291908181526020018280546108bc90612449565b80156109095780601f106108de57610100808354040283529160200191610909565b820191906000526020600020905b8154815290600101906020018083116108ec57829003601f168201915b505050505081565b600760009054906101000a900473ffffffffffffffffffffffffffffffffffffffff1673ffffffffffffffffffffffffffffffffffffffff163373ffffffffffffffffffffffffffffffffffffffff161461096b57600080fd5b6001600a60008373ffffffffffffffffffffffffffffffffffffffff1673ffffffffffffffffffffffffffffffffffffffff16815260200190815260200160002060006101000a81548160ff02191690831515021790555050565b6000806002600084815260200190815260200160002060009054906101000a900473ffffffffffffffffffffffffffffffffffffffff169050600073ffffffffffffffffffffffffffffffffffffffff168173ffffffffffffffffffffffffffffffffffffffff161415610a6f576040517f08c379a0000000000000000000000000000000000000000000000000000000008152600401610a6690612120565b60405180910390fd5b80915050919050565b60008073ffffffffffffffffffffffffffffffffffffffff168273ffffffffffffffffffffffffffffffffffffffff161415610ae9576040517f08c379a0000000000000000000000000000000000000000000000000000000008152600401610ae090612100565b60405180910390fd5b600360008373ffffffffffffffffffffffffffffffffffffffff1673ffffffffffffffffffffffffffffffffffffffff168152602001908152602001600020549050919050565b606060018054610b3f90612449565b80601f0160208091040260200160405190810160405280929190818152602001828054610b6b90612449565b8015610bb85780601f10610b8d57610100808354040283529160200191610bb8565b820191906000526020600020905b815481529060010190602001808311610b9b57829003601f168201915b5050505050905090565b610bd4610bcd610f85565b83836115fd565b5050565b6060600960008373ffffffffffffffffffffffffffffffffffffffff1673ffffffffffffffffffffffffffffffffffffffff1681526020019081526020016000208054610c2490612449565b80601f0160208091040260200160405190810160405280929190818152602001828054610c5090612449565b8015610c9d5780601f10610c7257610100808354040283529160200191610c9d565b820191906000526020600020905b815481529060010190602001808311610c8057829003601f168201915b50505050509050919050565b6060610cb482610f19565b610cf3576040517f08c379a0000000000000000000000000000000000000000000000000000000008152600401610cea90612180565b60405180910390fd5b6000600660008481526020019081526020016000208054610d1390612449565b80601f0160208091040260200160405190810160405280929190818152602001828054610d3f90612449565b8015610d8c5780601f10610d6157610100808354040283529160200191610d8c565b820191906000526020600020905b815481529060010190602001808311610d6f57829003601f168201915b505050505090506000610d9d61176a565b9050600081511415610db3578192505050610df6565b600082511115610de8578082604051602001610dd0929190611fc4565b60405160208183030381529060405292505050610df6565b610df184611781565b925050505b919050565b6000600560008473ffffffffffffffffffffffffffffffffffffffff1673ffffffffffffffffffffffffffffffffffffffff16815260200190815260200160002060008373ffffffffffffffffffffffffffffffffffffffff1673ffffffffffffffffffffffffffffffffffffffff16815260200190815260200160002060009054906101000a900460ff16905092915050565b600a6020528060005260406000206000915054906101000a900460ff1681565b60007f01ffc9a7000000000000000000000000000000000000000000000000000000007bffffffffffffffffffffffffffffffffffffffffffffffffffffffff1916827bffffffffffffffffffffffffffffffffffffffffffffffffffffffff1916149050919050565b60008073ffffffffffffffffffffffffffffffffffffffff166002600084815260200190815260200160002060009054906101000a900473ffffffffffffffffffffffffffffffffffffffff1673ffffffffffffffffffffffffffffffffffffffff1614159050919050565b600033905090565b816004600083815260200190815260200160002060006101000a81548173ffffffffffffffffffffffffffffffffffffffff021916908373ffffffffffffffffffffffffffffffffffffffff160217905550808273ffffffffffffffffffffffffffffffffffffffff16611000836109c6565b73ffffffffffffffffffffffffffffffffffffffff167f8c5be1e5ebec7d5bd14f71427d1e84f3dd0314c0f7b2291e5b200ac8c7c3b92560405160405180910390a45050565b600061105182610f19565b611090576040517f08c379a0000000000000000000000000000000000000000000000000000000008152600401611087906120c0565b60405180910390fd5b600061109b836109c6565b90508073ffffffffffffffffffffffffffffffffffffffff168473ffffffffffffffffffffffffffffffffffffffff1614806110dd57506110dc8185610dfb565b5b8061111b57508373ffffffffffffffffffffffffffffffffffffffff1661110384610505565b73ffffffffffffffffffffffffffffffffffffffff16145b91505092915050565b8273ffffffffffffffffffffffffffffffffffffffff16611144826109c6565b73ffffffffffffffffffffffffffffffffffffffff161461119a576040517f08c379a000000000000000000000000000000000000000000000000000000000815260040161119190612040565b60405180910390fd5b600073ffffffffffffffffffffffffffffffffffffffff168273ffffffffffffffffffffffffffffffffffffffff16141561120a576040517f08c379a000000000000000000000000000000000000000000000000000000000815260040161120190612080565b60405180910390fd5b611215838383611828565b611220600082610f8d565b6001600360008573ffffffffffffffffffffffffffffffffffffffff1673ffffffffffffffffffffffffffffffffffffffff1681526020019081526020016000206000828254611270919061235f565b925050819055506001600360008473ffffffffffffffffffffffffffffffffffffffff1673ffffffffffffffffffffffffffffffffffffffff16815260200190815260200160002060008282546112c791906122d8565b92505081905550816002600083815260200190815260200160002060006101000a81548173ffffffffffffffffffffffffffffffffffffffff021916908373ffffffffffffffffffffffffffffffffffffffff160217905550808273ffffffffffffffffffffffffffffffffffffffff168473ffffffffffffffffffffffffffffffffffffffff167fddf252ad1be2c89b69c2b068fc378daa952ba7f163c4a11628f55a4df523b3ef60405160405180910390a461138683838361182d565b505050565b6001816000016000828254019250508190555050565b600081600001549050919050565b600073ffffffffffffffffffffffffffffffffffffffff168273ffffffffffffffffffffffffffffffffffffffff16141561141f576040517f08c379a000000000000000000000000000000000000000000000000000000000815260040161141690612160565b60405180910390fd5b61142881610f19565b15611468576040517f08c379a000000000000000000000000000000000000000000000000000000000815260040161145f90612060565b60405180910390fd5b61147460008383611828565b6001600360008473ffffffffffffffffffffffffffffffffffffffff1673ffffffffffffffffffffffffffffffffffffffff16815260200190815260200160002060008282546114c491906122d8565b92505081905550816002600083815260200190815260200160002060006101000a81548173ffffffffffffffffffffffffffffffffffffffff021916908373ffffffffffffffffffffffffffffffffffffffff160217905550808273ffffffffffffffffffffffffffffffffffffffff16600073ffffffffffffffffffffffffffffffffffffffff167fddf252ad1be2c89b69c2b068fc378daa952ba7f163c4a11628f55a4df523b3ef60405160405180910390a46115856000838361182d565b5050565b61159282610f19565b6115d1576040517f08c379a00000000000000000000000000000000000000000000000000000000081526004016115c890612140565b60405180910390fd5b806006600084815260200190815260200160002090805190602001906115f89291906119df565b505050565b8173ffffffffffffffffffffffffffffffffffffffff168373ffffffffffffffffffffffffffffffffffffffff16141561166c576040517f08c379a0000000000000000000000000000000000000000000000000000000008152600401611663906120a0565b60405180910390fd5b80600560008573ffffffffffffffffffffffffffffffffffffffff1673ffffffffffffffffffffffffffffffffffffffff16815260200190815260200160002060008473ffffffffffffffffffffffffffffffffffffffff1673ffffffffffffffffffffffffffffffffffffffff16815260200190815260200160002060006101000a81548160ff0219169083151502179055508173ffffffffffffffffffffffffffffffffffffffff168373ffffffffffffffffffffffffffffffffffffffff167f17307eab39ab6107e8899845ad3d59bd9653f200f220920489ca2b5937696c318360405161175d9190612003565b60405180910390a3505050565b606060405180602001604052806000815250905090565b606061178c82610f19565b6117cb576040517f08c379a00000000000000000000000000000000000000000000000000000000081526004016117c2906121c0565b60405180910390fd5b60006117d561176a565b905060008151116117f55760405180602001604052806000815250611820565b806117ff84611832565b604051602001611810929190611fc4565b6040516020818303038152906040525b915050919050565b505050565b505050565b6060600082141561187a576040518060400160405280600181526020017f300000000000000000000000000000000000000000000000000000000000000081525090506119da565b600082905060005b600082146118ac578080611895906124ac565b915050600a826118a5919061232e565b9150611882565b60008167ffffffffffffffff8111156118ee577f4e487b7100000000000000000000000000000000000000000000000000000000600052604160045260246000fd5b6040519080825280601f01601f1916602001820160405280156119205781602001600182028036833780820191505090505b5090505b600085146119d357600182611939919061235f565b9150600a8561194891906124f5565b603061195491906122d8565b60f81b818381518110611990577f4e487b7100000000000000000000000000000000000000000000000000000000600052603260045260246000fd5b60200101907effffffffffffffffffffffffffffffffffffffffffffffffffffffffffffff1916908160001a905350600a856119cc919061232e565b9450611924565b8093505050505b919050565b8280546119eb90612449565b90600052602060002090601f016020900481019282611a0d5760008555611a54565b82601f10611a2657805160ff1916838001178555611a54565b82800160010185558215611a54579182015b82811115611a53578251825591602001919060010190611a38565b5b509050611a619190611a65565b5090565b5b80821115611a7e576000816000905550600101611a66565b5090565b6000611a95611a9084612280565b61225b565b905082815260208101848484011115611aad57600080fd5b611ab8848285612407565b509392505050565b600081359050611acf81612a4b565b92915050565b600081359050611ae481612a62565b92915050565b600081359050611af981612a79565b92915050565b600082601f830112611b1057600080fd5b8135611b20848260208601611a82565b91505092915050565b600081359050611b3881612a90565b92915050565b600060208284031215611b5057600080fd5b6000611b5e84828501611ac0565b91505092915050565b60008060408385031215611b7a57600080fd5b6000611b8885828601611ac0565b9250506020611b9985828601611ac0565b9150509250929050565b600080600060608486031215611bb857600080fd5b6000611bc686828701611ac0565b9350506020611bd786828701611ac0565b9250506040611be886828701611b29565b9150509250925092565b60008060408385031215611c0557600080fd5b6000611c1385828601611ac0565b9250506020611c2485828601611ad5565b9150509250929050565b60008060408385031215611c4157600080fd5b6000611c4f85828601611ac0565b9250506020611c6085828601611b29565b9150509250929050565b600060208284031215611c7c57600080fd5b6000611c8a84828501611aea565b91505092915050565b600060208284031215611ca557600080fd5b600082013567ffffffffffffffff811115611cbf57600080fd5b611ccb84828501611aff565b91505092915050565b600060208284031215611ce657600080fd5b6000611cf484828501611b29565b91505092915050565b611d0681612393565b82525050565b611d15816123a5565b82525050565b6000611d26826122b1565b611d3081856122bc565b9350611d40818560208601612416565b611d49816125e2565b840191505092915050565b6000611d5f826122b1565b611d6981856122cd565b9350611d79818560208601612416565b80840191505092915050565b6000611d926025836122bc565b9150611d9d826125f3565b604082019050919050565b6000611db5601c836122bc565b9150611dc082612642565b602082019050919050565b6000611dd86024836122bc565b9150611de38261266b565b604082019050919050565b6000611dfb6019836122bc565b9150611e06826126ba565b602082019050919050565b6000611e1e602c836122bc565b9150611e29826126e3565b604082019050919050565b6000611e416038836122bc565b9150611e4c82612732565b604082019050919050565b6000611e64602a836122bc565b9150611e6f82612781565b604082019050919050565b6000611e876029836122bc565b9150611e92826127d0565b604082019050919050565b6000611eaa602e836122bc565b9150611eb58261281f565b604082019050919050565b6000611ecd6020836122bc565b9150611ed88261286e565b602082019050919050565b6000611ef06031836122bc565b9150611efb82612897565b604082019050919050565b6000611f13602c836122bc565b9150611f1e826128e6565b604082019050919050565b6000611f36602f836122bc565b9150611f4182612935565b604082019050919050565b6000611f596021836122bc565b9150611f6482612984565b604082019050919050565b6000611f7c6031836122bc565b9150611f87826129d3565b604082019050919050565b6000611f9f601d836122bc565b9150611faa82612a22565b602082019050919050565b611fbe816123fd565b82525050565b6000611fd08285611d54565b9150611fdc8284611d54565b91508190509392505050565b6000602082019050611ffd6000830184611cfd565b92915050565b60006020820190506120186000830184611d0c565b92915050565b600060208201905081810360008301526120388184611d1b565b905092915050565b6000602082019050818103600083015261205981611d85565b9050919050565b6000602082019050818103600083015261207981611da8565b9050919050565b6000602082019050818103600083015261209981611dcb565b9050919050565b600060208201905081810360008301526120b981611dee565b9050919050565b600060208201905081810360008301526120d981611e11565b9050919050565b600060208201905081810360008301526120f981611e34565b9050919050565b6000602082019050818103600083015261211981611e57565b9050919050565b6000602082019050818103600083015261213981611e7a565b9050919050565b6000602082019050818103600083015261215981611e9d565b9050919050565b6000602082019050818103600083015261217981611ec0565b9050919050565b6000602082019050818103600083015261219981611ee3565b9050919050565b600060208201905081810360008301526121b981611f06565b9050919050565b600060208201905081810360008301526121d981611f29565b9050919050565b600060208201905081810360008301526121f981611f4c565b9050919050565b6000602082019050818103600083015261221981611f6f565b9050919050565b6000602082019050818103600083015261223981611f92565b9050919050565b60006020820190506122556000830184611fb5565b92915050565b6000612265612276565b9050612271828261247b565b919050565b6000604051905090565b600067ffffffffffffffff82111561229b5761229a6125b3565b5b6122a4826125e2565b9050602081019050919050565b600081519050919050565b600082825260208201905092915050565b600081905092915050565b60006122e3826123fd565b91506122ee836123fd565b9250827fffffffffffffffffffffffffffffffffffffffffffffffffffffffffffffffff0382111561232357612322612526565b5b828201905092915050565b6000612339826123fd565b9150612344836123fd565b92508261235457612353612555565b5b828204905092915050565b600061236a826123fd565b9150612375836123fd565b92508282101561238857612387612526565b5b828203905092915050565b600061239e826123dd565b9050919050565b60008115159050919050565b60007fffffffff0000000000000000000000000000000000000000000000000000000082169050919050565b600073ffffffffffffffffffffffffffffffffffffffff82169050919050565b6000819050919050565b82818337600083830152505050565b60005b83811015612434578082015181840152602081019050612419565b83811115612443576000848401525b50505050565b6000600282049050600182168061246157607f821691505b6020821081141561247557612474612584565b5b50919050565b612484826125e2565b810181811067ffffffffffffffff821117156124a3576124a26125b3565b5b80604052505050565b60006124b7826123fd565b91507fffffffffffffffffffffffffffffffffffffffffffffffffffffffffffffffff8214156124ea576124e9612526565b5b600182019050919050565b6000612500826123fd565b915061250b836123fd565b92508261251b5761251a612555565b5b828206905092915050565b7f4e487b7100000000000000000000000000000000000000000000000000000000600052601160045260246000fd5b7f4e487b7100000000000000000000000000000000000000000000000000000000600052601260045260246000fd5b7f4e487b7100000000000000000000000000000000000000000000000000000000600052602260045260246000fd5b7f4e487b7100000000000000000000000000000000000000000000000000000000600052604160045260246000fd5b6000601f19601f8301169050919050565b7f4552433732313a207472616e736665722066726f6d20696e636f72726563742060008201527f6f776e6572000000000000000000000000000000000000000000000000000000602082015250565b7f4552433732313a20746f6b656e20616c7265616479206d696e74656400000000600082015250565b7f4552433732313a207472616e7366657220746f20746865207a65726f2061646460008201527f7265737300000000000000000000000000000000000000000000000000000000602082015250565b7f4552433732313a20617070726f766520746f2063616c6c657200000000000000600082015250565b7f4552433732313a206f70657261746f7220717565727920666f72206e6f6e657860008201527f697374656e7420746f6b656e0000000000000000000000000000000000000000602082015250565b7f4552433732313a20617070726f76652063616c6c6572206973206e6f74206f7760008201527f6e6572206e6f7220617070726f76656420666f7220616c6c0000000000000000602082015250565b7f4552433732313a2062616c616e636520717565727920666f7220746865207a6560008201527f726f206164647265737300000000000000000000000000000000000000000000602082015250565b7f4552433732313a206f776e657220717565727920666f72206e6f6e657869737460008201527f656e7420746f6b656e0000000000000000000000000000000000000000000000602082015250565b7f45524337323155524953746f726167653a2055524920736574206f66206e6f6e60008201527f6578697374656e7420746f6b656e000000000000000000000000000000000000602082015250565b7f4552433732313a206d696e7420746f20746865207a65726f2061646472657373600082015250565b7f45524337323155524953746f726167653a2055524920717565727920666f722060008201527f6e6f6e6578697374656e7420746f6b656e000000000000000000000000000000602082015250565b7f4552433732313a20617070726f76656420717565727920666f72206e6f6e657860008201527f697374656e7420746f6b656e0000000000000000000000000000000000000000602082015250565b7f4552433732314d657461646174613a2055524920717565727920666f72206e6f60008201527f6e6578697374656e7420746f6b656e0000000000000000000000000000000000602082015250565b7f4552433732313a20617070726f76616c20746f2063757272656e74206f776e6560008201527f7200000000000000000000000000000000000000000000000000000000000000602082015250565b7f4552433732313a207472616e736665722063616c6c6572206973206e6f74206f60008201527f776e6572206e6f7220617070726f766564000000000000000000000000000000602082015250565b7f436172204365727469666963617465206973206e6f7420697373756564000000600082015250565b612a5481612393565b8114612a5f57600080fd5b50565b612a6b816123a5565b8114612a7657600080fd5b50565b612a82816123b1565b8114612a8d57600080fd5b50565b612a99816123fd565b8114612aa457600080fd5b5056fea264697066735822122094599783002c5735838d5ac265691cad9f7051503cafb02b779581c38fa722eb64736f6c63430008030033",
  "linkReferences": {},
  "deployedLinkReferences": {}
}