{
  "_format": "hh-sol-artifact-1",
  "contractName": "CarContract",
  "sourceName": "contracts/CarContract.sol",
  "abi": [
    {
      "inputs": [],
      "stateMutability": "nonpayable",
      "type": "constructor"
    },
    {
      "anonymous": false,
      "inputs": [
        {
          "indexed": true,
          "internalType": "address",
          "name": "owner",
          "type": "address"
        },
        {
          "indexed": true,
          "internalType": "address",
          "name": "approved",
          "type": "address"
        },
        {
          "indexed": true,
          "internalType": "uint256",
          "name": "tokenId",
          "type": "uint256"
        }
      ],
      "name": "Approval",
      "type": "event"
    },
    {
      "anonymous": false,
      "inputs": [
        {
          "indexed": true,
          "internalType": "address",
          "name": "owner",
          "type": "address"
        },
        {
          "indexed": true,
          "internalType": "address",
          "name": "operator",
          "type": "address"
        },
        {
          "indexed": false,
          "internalType": "bool",
          "name": "approved",
          "type": "bool"
        }
      ],
      "name": "ApprovalForAll",
      "type": "event"
    },
    {
      "anonymous": false,
      "inputs": [
        {
          "indexed": false,
          "internalType": "string",
          "name": "tokenURI",
          "type": "string"
        },
        {
          "indexed": false,
          "internalType": "address",
          "name": "caller",
          "type": "address"
        },
        {
          "indexed": false,
          "internalType": "uint256",
          "name": "certId",
          "type": "uint256"
        }
      ],
      "name": "LogCreateCertificate",
      "type": "event"
    },
    {
      "anonymous": false,
      "inputs": [
        {
          "indexed": false,
          "internalType": "address",
          "name": "caller",
          "type": "address"
        },
        {
          "indexed": false,
          "internalType": "string",
          "name": "message",
          "type": "string"
        }
      ],
      "name": "LogFallback",
      "type": "event"
    },
    {
      "anonymous": false,
      "inputs": [
        {
          "indexed": false,
          "internalType": "address",
          "name": "add",
          "type": "address"
        }
      ],
      "name": "LogForCreated",
      "type": "event"
    },
    {
      "anonymous": false,
      "inputs": [
        {
          "indexed": false,
          "internalType": "uint256",
          "name": "id",
          "type": "uint256"
        }
      ],
      "name": "LogForOccuppied",
      "type": "event"
    },
    {
      "anonymous": false,
      "inputs": [
        {
          "indexed": false,
          "internalType": "uint256",
          "name": "id",
          "type": "uint256"
        }
      ],
      "name": "LogForRent",
      "type": "event"
    },
    {
      "anonymous": false,
      "inputs": [
        {
          "indexed": false,
          "internalType": "uint256",
          "name": "rentalId",
          "type": "uint256"
        }
      ],
      "name": "LogRentCar",
      "type": "event"
    },
    {
      "anonymous": false,
      "inputs": [
        {
          "indexed": false,
          "internalType": "address",
          "name": "render",
          "type": "address"
        },
        {
          "indexed": false,
          "internalType": "uint256",
          "name": "deposit",
          "type": "uint256"
        }
      ],
      "name": "LogWithdraw",
      "type": "event"
    },
    {
      "anonymous": false,
      "inputs": [
        {
          "indexed": true,
          "internalType": "address",
          "name": "previousOwner",
          "type": "address"
        },
        {
          "indexed": true,
          "internalType": "address",
          "name": "newOwner",
          "type": "address"
        }
      ],
      "name": "OwnershipTransferred",
      "type": "event"
    },
    {
      "anonymous": false,
      "inputs": [
        {
          "indexed": true,
          "internalType": "address",
          "name": "from",
          "type": "address"
        },
        {
          "indexed": true,
          "internalType": "address",
          "name": "to",
          "type": "address"
        },
        {
          "indexed": true,
          "internalType": "uint256",
          "name": "tokenId",
          "type": "uint256"
        }
      ],
      "name": "Transfer",
      "type": "event"
    },
    {
      "stateMutability": "nonpayable",
      "type": "fallback"
    },
    {
      "inputs": [],
      "name": "OPERATOR_ROLE",
      "outputs": [
        {
          "internalType": "bytes32",
          "name": "",
          "type": "bytes32"
        }
      ],
      "stateMutability": "view",
      "type": "function"
    },
    {
      "inputs": [
        {
          "internalType": "address",
          "name": "",
          "type": "address"
        }
      ],
      "name": "Rentals",
      "outputs": [
        {
          "internalType": "uint256",
          "name": "id",
          "type": "uint256"
        },
        {
          "internalType": "uint256",
          "name": "datetime",
          "type": "uint256"
        },
        {
          "internalType": "string",
          "name": "drivername",
          "type": "string"
        },
        {
          "internalType": "bytes32",
          "name": "drivinglicenseid",
          "type": "bytes32"
        },
        {
          "internalType": "address payable",
          "name": "driver",
          "type": "address"
        },
        {
          "internalType": "uint256",
          "name": "duration",
          "type": "uint256"
        },
        {
          "internalType": "uint256",
          "name": "deposit",
          "type": "uint256"
        },
        {
          "internalType": "uint256",
          "name": "cid",
          "type": "uint256"
        },
        {
          "internalType": "enum CarContract.RentalState",
          "name": "state",
          "type": "uint8"
        }
      ],
      "stateMutability": "view",
      "type": "function"
    },
    {
      "inputs": [],
      "name": "WITHDRAWER_ROLE",
      "outputs": [
        {
          "internalType": "bytes32",
          "name": "",
          "type": "bytes32"
        }
      ],
      "stateMutability": "view",
      "type": "function"
    },
    {
      "inputs": [
        {
          "internalType": "address",
          "name": "to",
          "type": "address"
        },
        {
          "internalType": "uint256",
          "name": "tokenId",
          "type": "uint256"
        }
      ],
      "name": "approve",
      "outputs": [],
      "stateMutability": "nonpayable",
      "type": "function"
    },
    {
      "inputs": [
        {
          "internalType": "address",
          "name": "owner",
          "type": "address"
        }
      ],
      "name": "balanceOf",
      "outputs": [
        {
          "internalType": "uint256",
          "name": "",
          "type": "uint256"
        }
      ],
      "stateMutability": "view",
      "type": "function"
    },
    {
      "inputs": [
        {
          "internalType": "address payable",
          "name": "driver",
          "type": "address"
        }
      ],
      "name": "fetchRental",
      "outputs": [
        {
          "internalType": "uint256",
          "name": "rid",
          "type": "uint256"
        },
        {
          "internalType": "uint256",
          "name": "datetime",
          "type": "uint256"
        },
        {
          "internalType": "uint256",
          "name": "duration",
          "type": "uint256"
        },
        {
          "internalType": "uint256",
          "name": "deposit",
          "type": "uint256"
        },
        {
          "internalType": "address payable",
          "name": "renter",
          "type": "address"
        },
        {
          "internalType": "uint256",
          "name": "cid",
          "type": "uint256"
        },
        {
          "internalType": "uint256",
          "name": "state",
          "type": "uint256"
        }
      ],
      "stateMutability": "view",
      "type": "function"
    },
    {
      "inputs": [
        {
          "internalType": "uint256",
          "name": "tokenId",
          "type": "uint256"
        }
      ],
      "name": "getApproved",
      "outputs": [
        {
          "internalType": "address",
          "name": "",
          "type": "address"
        }
      ],
      "stateMutability": "view",
      "type": "function"
    },
    {
      "inputs": [
        {
          "internalType": "address",
          "name": "owner",
          "type": "address"
        },
        {
          "internalType": "address",
          "name": "operator",
          "type": "address"
        }
      ],
      "name": "isApprovedForAll",
      "outputs": [
        {
          "internalType": "bool",
          "name": "",
          "type": "bool"
        }
      ],
      "stateMutability": "view",
      "type": "function"
    },
    {
      "inputs": [],
      "name": "name",
      "outputs": [
        {
          "internalType": "string",
          "name": "",
          "type": "string"
        }
      ],
      "stateMutability": "view",
      "type": "function"
    },
    {
      "inputs": [],
      "name": "owner",
      "outputs": [
        {
          "internalType": "address",
          "name": "",
          "type": "address"
        }
      ],
      "stateMutability": "view",
      "type": "function"
    },
    {
      "inputs": [
        {
          "internalType": "uint256",
          "name": "tokenId",
          "type": "uint256"
        }
      ],
      "name": "ownerOf",
      "outputs": [
        {
          "internalType": "address",
          "name": "",
          "type": "address"
        }
      ],
      "stateMutability": "view",
      "type": "function"
    },
    {
      "inputs": [],
      "name": "renounceOwnership",
      "outputs": [],
      "stateMutability": "nonpayable",
      "type": "function"
    },
    {
      "inputs": [
        {
          "internalType": "uint256",
          "name": "_uid",
          "type": "uint256"
        },
        {
          "internalType": "string",
          "name": "_drivername",
          "type": "string"
        },
        {
          "internalType": "bytes32",
          "name": "_drivinglicenseid",
          "type": "bytes32"
        },
        {
          "internalType": "uint256",
          "name": "_datetime",
          "type": "uint256"
        }
      ],
      "name": "rentCar",
      "outputs": [
        {
          "internalType": "bool",
          "name": "",
          "type": "bool"
        }
      ],
      "stateMutability": "payable",
      "type": "function"
    },
    {
      "inputs": [
        {
          "internalType": "address",
          "name": "from",
          "type": "address"
        },
        {
          "internalType": "address",
          "name": "to",
          "type": "address"
        },
        {
          "internalType": "uint256",
          "name": "tokenId",
          "type": "uint256"
        }
      ],
      "name": "safeTransferFrom",
      "outputs": [],
      "stateMutability": "nonpayable",
      "type": "function"
    },
    {
      "inputs": [
        {
          "internalType": "address",
          "name": "from",
          "type": "address"
        },
        {
          "internalType": "address",
          "name": "to",
          "type": "address"
        },
        {
          "internalType": "uint256",
          "name": "tokenId",
          "type": "uint256"
        },
        {
          "internalType": "bytes",
          "name": "data",
          "type": "bytes"
        }
      ],
      "name": "safeTransferFrom",
      "outputs": [],
      "stateMutability": "nonpayable",
      "type": "function"
    },
    {
      "inputs": [
        {
          "internalType": "address",
          "name": "operator",
          "type": "address"
        },
        {
          "internalType": "bool",
          "name": "approved",
          "type": "bool"
        }
      ],
      "name": "setApprovalForAll",
      "outputs": [],
      "stateMutability": "nonpayable",
      "type": "function"
    },
    {
      "inputs": [
        {
          "internalType": "bytes4",
          "name": "interfaceId",
          "type": "bytes4"
        }
      ],
      "name": "supportsInterface",
      "outputs": [
        {
          "internalType": "bool",
          "name": "",
          "type": "bool"
        }
      ],
      "stateMutability": "view",
      "type": "function"
    },
    {
      "inputs": [],
      "name": "symbol",
      "outputs": [
        {
          "internalType": "string",
          "name": "",
          "type": "string"
        }
      ],
      "stateMutability": "view",
      "type": "function"
    },
    {
      "inputs": [
        {
          "internalType": "uint256",
          "name": "tokenId",
          "type": "uint256"
        }
      ],
      "name": "tokenURI",
      "outputs": [
        {
          "internalType": "string",
          "name": "",
          "type": "string"
        }
      ],
      "stateMutability": "view",
      "type": "function"
    },
    {
      "inputs": [
        {
          "internalType": "address",
          "name": "from",
          "type": "address"
        },
        {
          "internalType": "address",
          "name": "to",
          "type": "address"
        },
        {
          "internalType": "uint256",
          "name": "tokenId",
          "type": "uint256"
        }
      ],
      "name": "transferFrom",
      "outputs": [],
      "stateMutability": "nonpayable",
      "type": "function"
    },
    {
      "inputs": [
        {
          "internalType": "address",
          "name": "newOwner",
          "type": "address"
        }
      ],
      "name": "transferOwnership",
      "outputs": [],
      "stateMutability": "nonpayable",
      "type": "function"
    }
  ],
  "bytecode": "0x60806040526040518060400160405280601581526020017f68747470733a2f2f697066732e696f2f697066732f0000000000000000000000815250600b90816200004a919062000497565b503480156200005857600080fd5b506040518060400160405280600f81526020017f43617220436572746966696361746500000000000000000000000000000000008152506040518060400160405280600381526020017f4343540000000000000000000000000000000000000000000000000000000000815250620000e5620000d96200015160201b60201c565b6200015960201b60201c565b600180819055508160029081620000fd919062000497565b5080600390816200010f919062000497565b5050507fa5d6f4bfc285a47bbb0fd9853267070fbf5e5e4b6fae82b21c8a080aba56d1d630604051620001439190620005c3565b60405180910390a1620005e0565b600033905090565b60008060009054906101000a900473ffffffffffffffffffffffffffffffffffffffff169050816000806101000a81548173ffffffffffffffffffffffffffffffffffffffff021916908373ffffffffffffffffffffffffffffffffffffffff1602179055508173ffffffffffffffffffffffffffffffffffffffff168173ffffffffffffffffffffffffffffffffffffffff167f8be0079c531659141344cd1fd0a4f28419497f9722a3daafe3b4186f6b6457e060405160405180910390a35050565b600081519050919050565b7f4e487b7100000000000000000000000000000000000000000000000000000000600052604160045260246000fd5b7f4e487b7100000000000000000000000000000000000000000000000000000000600052602260045260246000fd5b600060028204905060018216806200029f57607f821691505b602082108103620002b557620002b462000257565b5b50919050565b60008190508160005260206000209050919050565b60006020601f8301049050919050565b600082821b905092915050565b6000600883026200031f7fffffffffffffffffffffffffffffffffffffffffffffffffffffffffffffffff82620002e0565b6200032b8683620002e0565b95508019841693508086168417925050509392505050565b6000819050919050565b6000819050919050565b600062000378620003726200036c8462000343565b6200034d565b62000343565b9050919050565b6000819050919050565b620003948362000357565b620003ac620003a3826200037f565b848454620002ed565b825550505050565b600090565b620003c3620003b4565b620003d081848462000389565b505050565b5b81811015620003f857620003ec600082620003b9565b600181019050620003d6565b5050565b601f82111562000447576200041181620002bb565b6200041c84620002d0565b810160208510156200042c578190505b620004446200043b85620002d0565b830182620003d5565b50505b505050565b600082821c905092915050565b60006200046c600019846008026200044c565b1980831691505092915050565b600062000487838362000459565b9150826002028217905092915050565b620004a2826200021d565b67ffffffffffffffff811115620004be57620004bd62000228565b5b620004ca825462000286565b620004d7828285620003fc565b600060209050601f8311600181146200050f5760008415620004fa578287015190505b62000506858262000479565b86555062000576565b601f1984166200051f86620002bb565b60005b82811015620005495784890151825560018201915060208501945060208101905062000522565b8683101562000569578489015162000565601f89168262000459565b8355505b6001600288020188555050505b505050505050565b600073ffffffffffffffffffffffffffffffffffffffff82169050919050565b6000620005ab826200057e565b9050919050565b620005bd816200059e565b82525050565b6000602082019050620005da6000830184620005b2565b92915050565b613b3d80620005f06000396000f3fe60806040526004361061012e5760003560e01c8063715018a6116100ab578063a22cb4651161006f578063a22cb4651461045f578063b88d4fde14610488578063c87b56dd146104b1578063e985e9c5146104ee578063f2fde38b1461052b578063f5b541a6146105545761012f565b8063715018a614610397578063755eaaef146103ae57806385f438c1146103de5780638da5cb5b1461040957806395d89b41146104345761012f565b806323b872dd116100f257806323b872dd14610286578063369195f0146102af57806342842e0e146102f45780636352211e1461031d57806370a082311461035a5761012f565b806301ffc9a71461017557806306fdde03146101b2578063081812fc146101dd578063095ea7b31461021a5780630c6d1e90146102435761012f565b5b34801561013b57600080fd5b507f2dc2b7df8523326c131ec9794f920c92f50f8a3e82175d9bd819bec171f2e0fc3360405161016b91906123fb565b60405180910390a1005b34801561018157600080fd5b5061019c60048036038101906101979190612495565b61057f565b6040516101a991906124dd565b60405180910390f35b3480156101be57600080fd5b506101c7610661565b6040516101d49190612577565b60405180910390f35b3480156101e957600080fd5b5061020460048036038101906101ff91906125cf565b6106f3565b60405161021191906125fc565b60405180910390f35b34801561022657600080fd5b50610241600480360381019061023c9190612643565b610739565b005b34801561024f57600080fd5b5061026a600480360381019061026591906126c1565b610850565b60405161027d979695949392919061270c565b60405180910390f35b34801561029257600080fd5b506102ad60048036038101906102a8919061277b565b610a88565b005b3480156102bb57600080fd5b506102d660048036038101906102d191906127ce565b610ae8565b6040516102eb9998979695949392919061288b565b60405180910390f35b34801561030057600080fd5b5061031b6004803603810190610316919061277b565b610beb565b005b34801561032957600080fd5b50610344600480360381019061033f91906125cf565b610c0b565b60405161035191906125fc565b60405180910390f35b34801561036657600080fd5b50610381600480360381019061037c91906127ce565b610cbc565b60405161038e919061291f565b60405180910390f35b3480156103a357600080fd5b506103ac610d73565b005b6103c860048036038101906103c391906129cb565b610d87565b6040516103d591906124dd565b60405180910390f35b3480156103ea57600080fd5b506103f3611163565b6040516104009190612a53565b60405180910390f35b34801561041557600080fd5b5061041e611187565b60405161042b91906125fc565b60405180910390f35b34801561044057600080fd5b506104496111b0565b6040516104569190612577565b60405180910390f35b34801561046b57600080fd5b5061048660048036038101906104819190612a9a565b611242565b005b34801561049457600080fd5b506104af60048036038101906104aa9190612c0a565b611258565b005b3480156104bd57600080fd5b506104d860048036038101906104d391906125cf565b6112ba565b6040516104e59190612577565b60405180910390f35b3480156104fa57600080fd5b5061051560048036038101906105109190612c8d565b6113cc565b60405161052291906124dd565b60405180910390f35b34801561053757600080fd5b50610552600480360381019061054d91906127ce565b611460565b005b34801561056057600080fd5b506105696114e3565b6040516105769190612a53565b60405180910390f35b60007f80ac58cd000000000000000000000000000000000000000000000000000000007bffffffffffffffffffffffffffffffffffffffffffffffffffffffff1916827bffffffffffffffffffffffffffffffffffffffffffffffffffffffff1916148061064a57507f5b5e139f000000000000000000000000000000000000000000000000000000007bffffffffffffffffffffffffffffffffffffffffffffffffffffffff1916827bffffffffffffffffffffffffffffffffffffffffffffffffffffffff1916145b8061065a575061065982611507565b5b9050919050565b60606002805461067090612cfc565b80601f016020809104026020016040519081016040528092919081815260200182805461069c90612cfc565b80156106e95780601f106106be576101008083540402835291602001916106e9565b820191906000526020600020905b8154815290600101906020018083116106cc57829003601f168201915b5050505050905090565b60006106fe82611571565b6006600083815260200190815260200160002060009054906101000a900473ffffffffffffffffffffffffffffffffffffffff169050919050565b600061074482610c0b565b90508073ffffffffffffffffffffffffffffffffffffffff168373ffffffffffffffffffffffffffffffffffffffff16036107b4576040517f08c379a00000000000000000000000000000000000000000000000000000000081526004016107ab90612d9f565b60405180910390fd5b8073ffffffffffffffffffffffffffffffffffffffff166107d36115bc565b73ffffffffffffffffffffffffffffffffffffffff1614806108025750610801816107fc6115bc565b6113cc565b5b610841576040517f08c379a000000000000000000000000000000000000000000000000000000000815260040161083890612e31565b60405180910390fd5b61084b83836115c4565b505050565b6000806000806000806000600e60008973ffffffffffffffffffffffffffffffffffffffff1673ffffffffffffffffffffffffffffffffffffffff168152602001908152602001600020600001549650600e60008973ffffffffffffffffffffffffffffffffffffffff1673ffffffffffffffffffffffffffffffffffffffff168152602001908152602001600020600101549550600e60008973ffffffffffffffffffffffffffffffffffffffff1673ffffffffffffffffffffffffffffffffffffffff168152602001908152602001600020600501549450600e60008973ffffffffffffffffffffffffffffffffffffffff1673ffffffffffffffffffffffffffffffffffffffff168152602001908152602001600020600601549350600e60008973ffffffffffffffffffffffffffffffffffffffff1673ffffffffffffffffffffffffffffffffffffffff16815260200190815260200160002060040160009054906101000a900473ffffffffffffffffffffffffffffffffffffffff169250600e60008973ffffffffffffffffffffffffffffffffffffffff1673ffffffffffffffffffffffffffffffffffffffff168152602001908152602001600020600701549150600e60008973ffffffffffffffffffffffffffffffffffffffff1673ffffffffffffffffffffffffffffffffffffffff16815260200190815260200160002060080160009054906101000a900460ff166001811115610a7b57610a7a612814565b5b9050919395979092949650565b610a99610a936115bc565b8261167d565b610ad8576040517f08c379a0000000000000000000000000000000000000000000000000000000008152600401610acf90612ec3565b60405180910390fd5b610ae3838383611712565b505050565b600e602052806000526040600020600091509050806000015490806001015490806002018054610b1790612cfc565b80601f0160208091040260200160405190810160405280929190818152602001828054610b4390612cfc565b8015610b905780601f10610b6557610100808354040283529160200191610b90565b820191906000526020600020905b815481529060010190602001808311610b7357829003601f168201915b5050505050908060030154908060040160009054906101000a900473ffffffffffffffffffffffffffffffffffffffff16908060050154908060060154908060070154908060080160009054906101000a900460ff16905089565b610c0683838360405180602001604052806000815250611258565b505050565b6000806004600084815260200190815260200160002060009054906101000a900473ffffffffffffffffffffffffffffffffffffffff169050600073ffffffffffffffffffffffffffffffffffffffff168173ffffffffffffffffffffffffffffffffffffffff1603610cb3576040517f08c379a0000000000000000000000000000000000000000000000000000000008152600401610caa90612f2f565b60405180910390fd5b80915050919050565b60008073ffffffffffffffffffffffffffffffffffffffff168273ffffffffffffffffffffffffffffffffffffffff1603610d2c576040517f08c379a0000000000000000000000000000000000000000000000000000000008152600401610d2390612fc1565b60405180910390fd5b600560008373ffffffffffffffffffffffffffffffffffffffff1673ffffffffffffffffffffffffffffffffffffffff168152602001908152602001600020549050919050565b610d7b611978565b610d8560006119f6565b565b60003360006001811115610d9e57610d9d612814565b5b600e60008373ffffffffffffffffffffffffffffffffffffffff1673ffffffffffffffffffffffffffffffffffffffff16815260200190815260200160002060080160009054906101000a900460ff166001811115610e0057610dff612814565b5b14610e40576040517f08c379a0000000000000000000000000000000000000000000000000000000008152600401610e379061302d565b60405180910390fd5b33610e49611187565b73ffffffffffffffffffffffffffffffffffffffff163373ffffffffffffffffffffffffffffffffffffffff1603610eb6576040517f08c379a0000000000000000000000000000000000000000000000000000000008152600401610ead906130bf565b60405180910390fd5b60003490506000339050604051806101200160405280600c5481526020018781526020018a8a8080601f016020809104026020016040519081016040528093929190818152602001838380828437600081840152601f19601f8201169050808301925050505050505081526020018881526020018273ffffffffffffffffffffffffffffffffffffffff168152602001600e81526020018381526020018b8152602001600180811115610f6c57610f6b612814565b5b815250600e60008373ffffffffffffffffffffffffffffffffffffffff1673ffffffffffffffffffffffffffffffffffffffff16815260200190815260200160002060008201518160000155602082015181600101556040820151816002019081610fd7919061328b565b506060820151816003015560808201518160040160006101000a81548173ffffffffffffffffffffffffffffffffffffffff021916908373ffffffffffffffffffffffffffffffffffffffff16021790555060a0820151816005015560c0820151816006015560e082015181600701556101008201518160080160006101000a81548160ff0219169083600181111561107357611072612814565b5b02179055509050506110856009611aba565b611118600b805461109590612cfc565b80601f01602080910402602001604051908101604052809291908181526020018280546110c190612cfc565b801561110e5780601f106110e35761010080835404028352916020019161110e565b820191906000526020600020905b8154815290600101906020018083116110f157829003601f168201915b5050505050611ad0565b507f3158f08622500fc5fd5cfd033f46329628f7b98d73933567c4b8b7cbae6d1a4c600c5460405161114a919061291f565b60405180910390a1600194505050505095945050505050565b7f10dac8c06a04bec0b551627dad28bc00d6516b0caacd1c7b345fcdb5211334e481565b60008060009054906101000a900473ffffffffffffffffffffffffffffffffffffffff16905090565b6060600380546111bf90612cfc565b80601f01602080910402602001604051908101604052809291908181526020018280546111eb90612cfc565b80156112385780601f1061120d57610100808354040283529160200191611238565b820191906000526020600020905b81548152906001019060200180831161121b57829003601f168201915b5050505050905090565b61125461124d6115bc565b8383611b42565b5050565b6112696112636115bc565b8361167d565b6112a8576040517f08c379a000000000000000000000000000000000000000000000000000000000815260040161129f90612ec3565b60405180910390fd5b6112b484848484611cae565b50505050565b60606112c582611571565b60006008600084815260200190815260200160002080546112e590612cfc565b80601f016020809104026020016040519081016040528092919081815260200182805461131190612cfc565b801561135e5780601f106113335761010080835404028352916020019161135e565b820191906000526020600020905b81548152906001019060200180831161134157829003601f168201915b50505050509050600061136f611d0a565b905060008151036113845781925050506113c7565b6000825111156113b95780826040516020016113a1929190613399565b604051602081830303815290604052925050506113c7565b6113c284611d21565b925050505b919050565b6000600760008473ffffffffffffffffffffffffffffffffffffffff1673ffffffffffffffffffffffffffffffffffffffff16815260200190815260200160002060008373ffffffffffffffffffffffffffffffffffffffff1673ffffffffffffffffffffffffffffffffffffffff16815260200190815260200160002060009054906101000a900460ff16905092915050565b611468611978565b600073ffffffffffffffffffffffffffffffffffffffff168173ffffffffffffffffffffffffffffffffffffffff16036114d7576040517f08c379a00000000000000000000000000000000000000000000000000000000081526004016114ce9061342f565b60405180910390fd5b6114e0816119f6565b50565b7f97667070c54ef182b0f5858b034beac1b6f3089aa2d3188bb1e8929f4fa9b92981565b60007f01ffc9a7000000000000000000000000000000000000000000000000000000007bffffffffffffffffffffffffffffffffffffffffffffffffffffffff1916827bffffffffffffffffffffffffffffffffffffffffffffffffffffffff1916149050919050565b61157a81611d89565b6115b9576040517f08c379a00000000000000000000000000000000000000000000000000000000081526004016115b090612f2f565b60405180910390fd5b50565b600033905090565b816006600083815260200190815260200160002060006101000a81548173ffffffffffffffffffffffffffffffffffffffff021916908373ffffffffffffffffffffffffffffffffffffffff160217905550808273ffffffffffffffffffffffffffffffffffffffff1661163783610c0b565b73ffffffffffffffffffffffffffffffffffffffff167f8c5be1e5ebec7d5bd14f71427d1e84f3dd0314c0f7b2291e5b200ac8c7c3b92560405160405180910390a45050565b60008061168983610c0b565b90508073ffffffffffffffffffffffffffffffffffffffff168473ffffffffffffffffffffffffffffffffffffffff1614806116cb57506116ca81856113cc565b5b8061170957508373ffffffffffffffffffffffffffffffffffffffff166116f1846106f3565b73ffffffffffffffffffffffffffffffffffffffff16145b91505092915050565b8273ffffffffffffffffffffffffffffffffffffffff1661173282610c0b565b73ffffffffffffffffffffffffffffffffffffffff1614611788576040517f08c379a000000000000000000000000000000000000000000000000000000000815260040161177f906134c1565b60405180910390fd5b600073ffffffffffffffffffffffffffffffffffffffff168273ffffffffffffffffffffffffffffffffffffffff16036117f7576040517f08c379a00000000000000000000000000000000000000000000000000000000081526004016117ee90613553565b60405180910390fd5b611802838383611df5565b61180d6000826115c4565b6001600560008573ffffffffffffffffffffffffffffffffffffffff1673ffffffffffffffffffffffffffffffffffffffff168152602001908152602001600020600082825461185d91906135a2565b925050819055506001600560008473ffffffffffffffffffffffffffffffffffffffff1673ffffffffffffffffffffffffffffffffffffffff16815260200190815260200160002060008282546118b491906135d6565b92505081905550816004600083815260200190815260200160002060006101000a81548173ffffffffffffffffffffffffffffffffffffffff021916908373ffffffffffffffffffffffffffffffffffffffff160217905550808273ffffffffffffffffffffffffffffffffffffffff168473ffffffffffffffffffffffffffffffffffffffff167fddf252ad1be2c89b69c2b068fc378daa952ba7f163c4a11628f55a4df523b3ef60405160405180910390a4611973838383611dfa565b505050565b6119806115bc565b73ffffffffffffffffffffffffffffffffffffffff1661199e611187565b73ffffffffffffffffffffffffffffffffffffffff16146119f4576040517f08c379a00000000000000000000000000000000000000000000000000000000081526004016119eb90613656565b60405180910390fd5b565b60008060009054906101000a900473ffffffffffffffffffffffffffffffffffffffff169050816000806101000a81548173ffffffffffffffffffffffffffffffffffffffff021916908373ffffffffffffffffffffffffffffffffffffffff1602179055508173ffffffffffffffffffffffffffffffffffffffff168173ffffffffffffffffffffffffffffffffffffffff167f8be0079c531659141344cd1fd0a4f28419497f9722a3daafe3b4186f6b6457e060405160405180910390a35050565b6001816000016000828254019250508190555050565b6000611adc600a611aba565b6000611ae8600a611dff565b9050611af43382611e0d565b611afe8184611fe6565b7f1397767a6af3f3e79c5cdc0d264c81c847f8f409d7bf26bf20659cc6b73cb297833383604051611b3193929190613676565b60405180910390a180915050919050565b8173ffffffffffffffffffffffffffffffffffffffff168373ffffffffffffffffffffffffffffffffffffffff1603611bb0576040517f08c379a0000000000000000000000000000000000000000000000000000000008152600401611ba790613700565b60405180910390fd5b80600760008573ffffffffffffffffffffffffffffffffffffffff1673ffffffffffffffffffffffffffffffffffffffff16815260200190815260200160002060008473ffffffffffffffffffffffffffffffffffffffff1673ffffffffffffffffffffffffffffffffffffffff16815260200190815260200160002060006101000a81548160ff0219169083151502179055508173ffffffffffffffffffffffffffffffffffffffff168373ffffffffffffffffffffffffffffffffffffffff167f17307eab39ab6107e8899845ad3d59bd9653f200f220920489ca2b5937696c3183604051611ca191906124dd565b60405180910390a3505050565b611cb9848484611712565b611cc584848484612053565b611d04576040517f08c379a0000000000000000000000000000000000000000000000000000000008152600401611cfb90613792565b60405180910390fd5b50505050565b606060405180602001604052806000815250905090565b6060611d2c82611571565b6000611d36611d0a565b90506000815111611d565760405180602001604052806000815250611d81565b80611d60846121da565b604051602001611d71929190613399565b6040516020818303038152906040525b915050919050565b60008073ffffffffffffffffffffffffffffffffffffffff166004600084815260200190815260200160002060009054906101000a900473ffffffffffffffffffffffffffffffffffffffff1673ffffffffffffffffffffffffffffffffffffffff1614159050919050565b505050565b505050565b600081600001549050919050565b600073ffffffffffffffffffffffffffffffffffffffff168273ffffffffffffffffffffffffffffffffffffffff1603611e7c576040517f08c379a0000000000000000000000000000000000000000000000000000000008152600401611e73906137fe565b60405180910390fd5b611e8581611d89565b15611ec5576040517f08c379a0000000000000000000000000000000000000000000000000000000008152600401611ebc9061386a565b60405180910390fd5b611ed160008383611df5565b6001600560008473ffffffffffffffffffffffffffffffffffffffff1673ffffffffffffffffffffffffffffffffffffffff1681526020019081526020016000206000828254611f2191906135d6565b92505081905550816004600083815260200190815260200160002060006101000a81548173ffffffffffffffffffffffffffffffffffffffff021916908373ffffffffffffffffffffffffffffffffffffffff160217905550808273ffffffffffffffffffffffffffffffffffffffff16600073ffffffffffffffffffffffffffffffffffffffff167fddf252ad1be2c89b69c2b068fc378daa952ba7f163c4a11628f55a4df523b3ef60405160405180910390a4611fe260008383611dfa565b5050565b611fef82611d89565b61202e576040517f08c379a0000000000000000000000000000000000000000000000000000000008152600401612025906138fc565b60405180910390fd5b8060086000848152602001908152602001600020908161204e919061328b565b505050565b60006120748473ffffffffffffffffffffffffffffffffffffffff1661233a565b156121cd578373ffffffffffffffffffffffffffffffffffffffff1663150b7a0261209d6115bc565b8786866040518563ffffffff1660e01b81526004016120bf9493929190613971565b6020604051808303816000875af19250505080156120fb57506040513d601f19601f820116820180604052508101906120f891906139d2565b60015b61217d573d806000811461212b576040519150601f19603f3d011682016040523d82523d6000602084013e612130565b606091505b506000815103612175576040517f08c379a000000000000000000000000000000000000000000000000000000000815260040161216c90613792565b60405180910390fd5b805181602001fd5b63150b7a0260e01b7bffffffffffffffffffffffffffffffffffffffffffffffffffffffff1916817bffffffffffffffffffffffffffffffffffffffffffffffffffffffff1916149150506121d2565b600190505b949350505050565b606060008203612221576040518060400160405280600181526020017f30000000000000000000000000000000000000000000000000000000000000008152509050612335565b600082905060005b6000821461225357808061223c906139ff565b915050600a8261224c9190613a76565b9150612229565b60008167ffffffffffffffff81111561226f5761226e612adf565b5b6040519080825280601f01601f1916602001820160405280156122a15781602001600182028036833780820191505090505b5090505b6000851461232e576001826122ba91906135a2565b9150600a856122c99190613aa7565b60306122d591906135d6565b60f81b8183815181106122eb576122ea613ad8565b5b60200101907effffffffffffffffffffffffffffffffffffffffffffffffffffffffffffff1916908160001a905350600a856123279190613a76565b94506122a5565b8093505050505b919050565b6000808273ffffffffffffffffffffffffffffffffffffffff163b119050919050565b600073ffffffffffffffffffffffffffffffffffffffff82169050919050565b60006123888261235d565b9050919050565b6123988161237d565b82525050565b600082825260208201905092915050565b7f46616c6c6261636b207761732063616c6c656421212100000000000000000000600082015250565b60006123e560168361239e565b91506123f0826123af565b602082019050919050565b6000604082019050612410600083018461238f565b8181036020830152612421816123d8565b905092915050565b6000604051905090565b600080fd5b600080fd5b60007fffffffff0000000000000000000000000000000000000000000000000000000082169050919050565b6124728161243d565b811461247d57600080fd5b50565b60008135905061248f81612469565b92915050565b6000602082840312156124ab576124aa612433565b5b60006124b984828501612480565b91505092915050565b60008115159050919050565b6124d7816124c2565b82525050565b60006020820190506124f260008301846124ce565b92915050565b600081519050919050565b60005b83811015612521578082015181840152602081019050612506565b60008484015250505050565b6000601f19601f8301169050919050565b6000612549826124f8565b612553818561239e565b9350612563818560208601612503565b61256c8161252d565b840191505092915050565b60006020820190508181036000830152612591818461253e565b905092915050565b6000819050919050565b6125ac81612599565b81146125b757600080fd5b50565b6000813590506125c9816125a3565b92915050565b6000602082840312156125e5576125e4612433565b5b60006125f3848285016125ba565b91505092915050565b6000602082019050612611600083018461238f565b92915050565b6126208161237d565b811461262b57600080fd5b50565b60008135905061263d81612617565b92915050565b6000806040838503121561265a57612659612433565b5b60006126688582860161262e565b9250506020612679858286016125ba565b9150509250929050565b600061268e8261235d565b9050919050565b61269e81612683565b81146126a957600080fd5b50565b6000813590506126bb81612695565b92915050565b6000602082840312156126d7576126d6612433565b5b60006126e5848285016126ac565b91505092915050565b6126f781612599565b82525050565b61270681612683565b82525050565b600060e082019050612721600083018a6126ee565b61272e60208301896126ee565b61273b60408301886126ee565b61274860608301876126ee565b61275560808301866126fd565b61276260a08301856126ee565b61276f60c08301846126ee565b98975050505050505050565b60008060006060848603121561279457612793612433565b5b60006127a28682870161262e565b93505060206127b38682870161262e565b92505060406127c4868287016125ba565b9150509250925092565b6000602082840312156127e4576127e3612433565b5b60006127f28482850161262e565b91505092915050565b6000819050919050565b61280e816127fb565b82525050565b7f4e487b7100000000000000000000000000000000000000000000000000000000600052602160045260246000fd5b6002811061285457612853612814565b5b50565b600081905061286582612843565b919050565b600061287582612857565b9050919050565b6128858161286a565b82525050565b6000610120820190506128a1600083018c6126ee565b6128ae602083018b6126ee565b81810360408301526128c0818a61253e565b90506128cf6060830189612805565b6128dc60808301886126fd565b6128e960a08301876126ee565b6128f660c08301866126ee565b61290360e08301856126ee565b61291161010083018461287c565b9a9950505050505050505050565b600060208201905061293460008301846126ee565b92915050565b600080fd5b600080fd5b600080fd5b60008083601f84011261295f5761295e61293a565b5b8235905067ffffffffffffffff81111561297c5761297b61293f565b5b60208301915083600182028301111561299857612997612944565b5b9250929050565b6129a8816127fb565b81146129b357600080fd5b50565b6000813590506129c58161299f565b92915050565b6000806000806000608086880312156129e7576129e6612433565b5b60006129f5888289016125ba565b955050602086013567ffffffffffffffff811115612a1657612a15612438565b5b612a2288828901612949565b94509450506040612a35888289016129b6565b9250506060612a46888289016125ba565b9150509295509295909350565b6000602082019050612a686000830184612805565b92915050565b612a77816124c2565b8114612a8257600080fd5b50565b600081359050612a9481612a6e565b92915050565b60008060408385031215612ab157612ab0612433565b5b6000612abf8582860161262e565b9250506020612ad085828601612a85565b9150509250929050565b600080fd5b7f4e487b7100000000000000000000000000000000000000000000000000000000600052604160045260246000fd5b612b178261252d565b810181811067ffffffffffffffff82111715612b3657612b35612adf565b5b80604052505050565b6000612b49612429565b9050612b558282612b0e565b919050565b600067ffffffffffffffff821115612b7557612b74612adf565b5b612b7e8261252d565b9050602081019050919050565b82818337600083830152505050565b6000612bad612ba884612b5a565b612b3f565b905082815260208101848484011115612bc957612bc8612ada565b5b612bd4848285612b8b565b509392505050565b600082601f830112612bf157612bf061293a565b5b8135612c01848260208601612b9a565b91505092915050565b60008060008060808587031215612c2457612c23612433565b5b6000612c328782880161262e565b9450506020612c438782880161262e565b9350506040612c54878288016125ba565b925050606085013567ffffffffffffffff811115612c7557612c74612438565b5b612c8187828801612bdc565b91505092959194509250565b60008060408385031215612ca457612ca3612433565b5b6000612cb28582860161262e565b9250506020612cc38582860161262e565b9150509250929050565b7f4e487b7100000000000000000000000000000000000000000000000000000000600052602260045260246000fd5b60006002820490506001821680612d1457607f821691505b602082108103612d2757612d26612ccd565b5b50919050565b7f4552433732313a20617070726f76616c20746f2063757272656e74206f776e6560008201527f7200000000000000000000000000000000000000000000000000000000000000602082015250565b6000612d8960218361239e565b9150612d9482612d2d565b604082019050919050565b60006020820190508181036000830152612db881612d7c565b9050919050565b7f4552433732313a20617070726f76652063616c6c6572206973206e6f7420746f60008201527f6b656e206f776e6572206e6f7220617070726f76656420666f7220616c6c0000602082015250565b6000612e1b603e8361239e565b9150612e2682612dbf565b604082019050919050565b60006020820190508181036000830152612e4a81612e0e565b9050919050565b7f4552433732313a2063616c6c6572206973206e6f7420746f6b656e206f776e6560008201527f72206e6f7220617070726f766564000000000000000000000000000000000000602082015250565b6000612ead602e8361239e565b9150612eb882612e51565b604082019050919050565b60006020820190508181036000830152612edc81612ea0565b9050919050565b7f4552433732313a20696e76616c696420746f6b656e2049440000000000000000600082015250565b6000612f1960188361239e565b9150612f2482612ee3565b602082019050919050565b60006020820190508181036000830152612f4881612f0c565b9050919050565b7f4552433732313a2061646472657373207a65726f206973206e6f74206120766160008201527f6c6964206f776e65720000000000000000000000000000000000000000000000602082015250565b6000612fab60298361239e565b9150612fb682612f4f565b604082019050919050565b60006020820190508181036000830152612fda81612f9e565b9050919050565b7f446f75626c6520626f6f6b696e67206973206e6f7420616c6c6f776564000000600082015250565b6000613017601d8361239e565b915061302282612fe1565b602082019050919050565b600060208201905081810360008301526130468161300a565b9050919050565b7f4f776e6572206973206e6f7420616c6c6f77656420666f7220626f6f6b696e6760008201527f7300000000000000000000000000000000000000000000000000000000000000602082015250565b60006130a960218361239e565b91506130b48261304d565b604082019050919050565b600060208201905081810360008301526130d88161309c565b9050919050565b60008190508160005260206000209050919050565b60006020601f8301049050919050565b600082821b905092915050565b6000600883026131417fffffffffffffffffffffffffffffffffffffffffffffffffffffffffffffffff82613104565b61314b8683613104565b95508019841693508086168417925050509392505050565b6000819050919050565b600061318861318361317e84612599565b613163565b612599565b9050919050565b6000819050919050565b6131a28361316d565b6131b66131ae8261318f565b848454613111565b825550505050565b600090565b6131cb6131be565b6131d6818484613199565b505050565b5b818110156131fa576131ef6000826131c3565b6001810190506131dc565b5050565b601f82111561323f57613210816130df565b613219846130f4565b81016020851015613228578190505b61323c613234856130f4565b8301826131db565b50505b505050565b600082821c905092915050565b600061326260001984600802613244565b1980831691505092915050565b600061327b8383613251565b9150826002028217905092915050565b613294826124f8565b67ffffffffffffffff8111156132ad576132ac612adf565b5b6132b78254612cfc565b6132c28282856131fe565b600060209050601f8311600181146132f557600084156132e3578287015190505b6132ed858261326f565b865550613355565b601f198416613303866130df565b60005b8281101561332b57848901518255600182019150602085019450602081019050613306565b868310156133485784890151613344601f891682613251565b8355505b6001600288020188555050505b505050505050565b600081905092915050565b6000613373826124f8565b61337d818561335d565b935061338d818560208601612503565b80840191505092915050565b60006133a58285613368565b91506133b18284613368565b91508190509392505050565b7f4f776e61626c653a206e6577206f776e657220697320746865207a65726f206160008201527f6464726573730000000000000000000000000000000000000000000000000000602082015250565b600061341960268361239e565b9150613424826133bd565b604082019050919050565b600060208201905081810360008301526134488161340c565b9050919050565b7f4552433732313a207472616e736665722066726f6d20696e636f72726563742060008201527f6f776e6572000000000000000000000000000000000000000000000000000000602082015250565b60006134ab60258361239e565b91506134b68261344f565b604082019050919050565b600060208201905081810360008301526134da8161349e565b9050919050565b7f4552433732313a207472616e7366657220746f20746865207a65726f2061646460008201527f7265737300000000000000000000000000000000000000000000000000000000602082015250565b600061353d60248361239e565b9150613548826134e1565b604082019050919050565b6000602082019050818103600083015261356c81613530565b9050919050565b7f4e487b7100000000000000000000000000000000000000000000000000000000600052601160045260246000fd5b60006135ad82612599565b91506135b883612599565b92508282039050818111156135d0576135cf613573565b5b92915050565b60006135e182612599565b91506135ec83612599565b925082820190508082111561360457613603613573565b5b92915050565b7f4f776e61626c653a2063616c6c6572206973206e6f7420746865206f776e6572600082015250565b600061364060208361239e565b915061364b8261360a565b602082019050919050565b6000602082019050818103600083015261366f81613633565b9050919050565b60006060820190508181036000830152613690818661253e565b905061369f602083018561238f565b6136ac60408301846126ee565b949350505050565b7f4552433732313a20617070726f766520746f2063616c6c657200000000000000600082015250565b60006136ea60198361239e565b91506136f5826136b4565b602082019050919050565b60006020820190508181036000830152613719816136dd565b9050919050565b7f4552433732313a207472616e7366657220746f206e6f6e20455243373231526560008201527f63656976657220696d706c656d656e7465720000000000000000000000000000602082015250565b600061377c60328361239e565b915061378782613720565b604082019050919050565b600060208201905081810360008301526137ab8161376f565b9050919050565b7f4552433732313a206d696e7420746f20746865207a65726f2061646472657373600082015250565b60006137e860208361239e565b91506137f3826137b2565b602082019050919050565b60006020820190508181036000830152613817816137db565b9050919050565b7f4552433732313a20746f6b656e20616c7265616479206d696e74656400000000600082015250565b6000613854601c8361239e565b915061385f8261381e565b602082019050919050565b6000602082019050818103600083015261388381613847565b9050919050565b7f45524337323155524953746f726167653a2055524920736574206f66206e6f6e60008201527f6578697374656e7420746f6b656e000000000000000000000000000000000000602082015250565b60006138e6602e8361239e565b91506138f18261388a565b604082019050919050565b60006020820190508181036000830152613915816138d9565b9050919050565b600081519050919050565b600082825260208201905092915050565b60006139438261391c565b61394d8185613927565b935061395d818560208601612503565b6139668161252d565b840191505092915050565b6000608082019050613986600083018761238f565b613993602083018661238f565b6139a060408301856126ee565b81810360608301526139b28184613938565b905095945050505050565b6000815190506139cc81612469565b92915050565b6000602082840312156139e8576139e7612433565b5b60006139f6848285016139bd565b91505092915050565b6000613a0a82612599565b91507fffffffffffffffffffffffffffffffffffffffffffffffffffffffffffffffff8203613a3c57613a3b613573565b5b600182019050919050565b7f4e487b7100000000000000000000000000000000000000000000000000000000600052601260045260246000fd5b6000613a8182612599565b9150613a8c83612599565b925082613a9c57613a9b613a47565b5b828204905092915050565b6000613ab282612599565b9150613abd83612599565b925082613acd57613acc613a47565b5b828206905092915050565b7f4e487b7100000000000000000000000000000000000000000000000000000000600052603260045260246000fdfea26469706673582212207c56b39bb99d67fd22d4f73bc4557fd7f54e3e7a6ac4e331e8c13b014c078b9c64736f6c63430008110033",
  "linkReferences": {},
  "deployedLinkReferences": {}
}